:020000040800F2
:100000000000012039070008890700088907000857
:100010008907000889070008890700080000000018
:100020000000000000000000000000008907000838
:1000300089070008000000008907000889070008F8
:1000400000000000890700088907000889070008E8
:100050008907000889070008890700088907000840
:1000600089070008890700088907000800000000C8
:100070000000000000000000000000000000000080
:1000800000000000000000008907000800000000D8
:1000900000000000000000000000000089070008C8
:1000A00089070008890700088907000889070008F0
:1000B00089070008890700088907000889070008E0
:1000C00089070008890700088907000889070008D0
:1000D0008907000889070008890700080000000058
:1000E0008907000889070008890700080000000048
:1000F0000000000000000000000000000000000000
:100100000000000089070008890700088907000827
:1001100000000000000000000000000000000000DF
:1001200000000000000000000000000000000000CF
:1001300000000000000000000000000000000000BF
:100140000000000000000000000000008907000817
:100150000000000000000000000000008907000807
:10016000890700088907000800000000000000005F
:10017000000000000000000000000000000000007F
:1001800000000000890700080000000000000000D7
:0401900089070008D3
:1001940010B5054C237833B9044B13B10448AFF3BD
:1001A40000800123237010BD000000200000000027
:1001B400D407000808B5034B1BB103490348AFF348
:1001C400008008BD0000000004000020D4070008DF
:1001D40080B483B000AF00237B6002E07B6801330E
:1001E4007B607B6846F2A7129342F7D900BF00BF39
:1001F4000C37BD4680BC704780B586B000AF1A4B43
:10020400FB601A4B3B600D233B7401237B7400237A
:10021400BB7400233B750023FB740121124800F0DA
:1002240027F807F10C03184600F0E6F800233B71A9
:1002340000237B710023BB710123FB7101210B4857
:1002440000F016F83B46184600F0D6F8002107489F
:1002540000F046FA0346002BF8D10D21024800F0C5
:1002640054FAFFF7B5FFF1E700080240000002402E
:1002740080B483B000AF78600B46FB70FB78012B31
:1002840041D17B68554A934206D1554B1B6B544A66
:1002940043F0010313639BE07B68524A934206D107
:1002A4004F4B1B6B4E4A43F00203136390E07B6891
:1002B4004D4A934206D14A4B1B6B494A43F004030F
:1002C400136385E07B68494A934206D1444B1B6B18
:1002D400434A43F0080313637AE07B68444A934239
:1002E40006D13F4B1B6B3E4A43F0100313636FE090
:1002F4007B68404A93426BD1394B1B6B384A43F0BD
:100304008003136364E07B68344A93420CD1344B1A
:100314001B69334A43F001031361314B1B69304AB3
:1003240023F00103136153E07B682E4A93420CD1FE
:100334002B4B1B692A4A43F002031361284B1B69A8
:10034400274A23F00203136142E07B68264A934262
:100354000CD1234B1B69224A43F004031361204B45
:100364001B691F4A23F00403136131E07B681F4AB1
:1003740093420CD11A4B1B69194A43F008031361C9
:10038400174B1B69164A23F00803136120E07B68AE
:10039400174A93420CD1124B1B69114A43F01003C4
:1003A40013610F4B1B690E4A23F0100313610FE016
:1003B4007B68104A93420BD1094B1B69084A43F0EE
:1003C40080031361064B1B69054A23F08003136104
:1003D40000BF0C37BD4680BC704700BF0000024020
:1003E400003802400004024000080240000C0240B1
:1003F40000100240001C024080B487B000AF786057
:1004040000237B617B685B79032B1FD87B685B7956
:100414001A467B681B795B0002FA03F37B617B68F5
:100424001B681A687B681B79194603238B40DB43DE
:1004340019467B681B680A401A607B681B68196848
:100444007B681B687A690A431A609BE07B685B7966
:10045400042B17D19A4BDB687A6812791146012272
:100464008A401146964A0B43D360954B9B687A6841
:100474001279114601228A40D2431146904A0B4018
:10048400936035E07B685B79052B17D18C4B9B68B7
:100494007A681279114601228A401146884A0B4330
:1004A4009360874BDB687A681279114601228A408F
:1004B400D2431146824A0B40D36019E07B685B79D2
:1004C400062B15D17E4BDB687A681279114601221E
:1004D4008A4011467A4A0B43D360794B9B687A6809
:1004E4001279114601228A401146754A0B439360E2
:1004F4007B681B799B08FB747B681B7903F00303FF
:10050400BB747B681B686F4A934224D07B681B686A
:100514006D4A93421DD07B681B686C4A934216D087
:100524007B681B686A4A93420FD07B681B68694AE0
:10053400934208D07B681B68674A934201D1072322
:100544000AE0002308E0042306E0032304E0022376
:1005540002E0012300E000237B747A7CBB7C9B00D7
:1005640002FA03F15D4AFB7C023342F82310544B38
:100574001B687A681279114601228A401146504A52
:100584000B43136000237B617B689B791A467B686D
:100594001B795B0002FA03F37B617B681B689A6832
:1005A4007B681B79194603238B40DB4319467B6820
:1005B4001B680A409A607B681B6899687B681B68A3
:1005C4007A690A439A6000237B617B68DB791A4667
:1005D4007B681B795B0002FA03F37B617B681B6811
:1005E400DA687B681B79194603238B40DB43194681
:1005F4007B681B680A40DA607B681B68D9687B6883
:100604001B687A690A43DA6000237B617B681B7A82
:100614001A467B681B7902FA03F37B617B681B68CB
:100624005A687B681B79194601238B40DB431946C2
:100634007B681B680A405A607B681B6859687B6842
:100644001B687A690A435A607B685B79022B31D153
:100654007B681B79DB083B747B681B7903F0070319
:10066400FB737B681B683A7C083253F82210FB7BCF
:100674009B000F2202FA03F3DB4318467B681B68D6
:100684003A7C0140083243F822107B681B683A7CAC
:10069400083253F822107B685B7A1A46FB7B9B0076
:1006A40002FA03F318467B681B683A7C014308325C
:1006B40043F8221000BF1C37BD4680BC704700BF02
:1006C400003C0140000002400004024000080240D7
:1006D400000C024000100240001C0240003801409F
:1006E40080B485B000AF78600B46FB707B681A69F4
:1006F400FB7822FA03F3DBB203F00103FB73FB7B09
:1007040018461437BD4680BC704780B483B000AF30
:1007140078600B46FB707B685B69FA78012101FA0B
:1007240002F25A407B685A6100BF0C37BD4680BC58
:10073400704700000D488546AFF300800C480D4912
:100744000D4A002302E0D458C4500433C4188C4228
:10075400F9D30A4A0A4C002301E013600432A2428E
:10076400FBD300F011F8FFF747FDFEE7000001207E
:100774000000002000000020F40700080000002012
:100784001C000020FEE7000070B50D4D0D4C641BED
:10079400A4100026A64209D10B4D0C4C00F018F809
:1007A400641BA4100026A64205D170BD55F8043B75
:1007B40098470136EEE755F8043B98470136F2E7CF
:1007C400EC070008EC070008EC070008F007000835
:1007D400F8B500BFF8BC08BC9E467047F8B500BF2A
:0807E400F8BC08BC9E467047FA
:0407EC00B901000847
:0407F0009501000867
:0400000508000739AF
:00000001FF
